{
  "contractName": "Lockdrop",
  "abi": [
    {
      "constant": true,
      "inputs": [],
      "name": "LOCK_START_TIME",
      "outputs": [
        {
          "name": "",
          "type": "uint256"
        }
      ],
      "payable": false,
      "stateMutability": "view",
      "type": "function",
      "signature": "0x15f2e2f7"
    },
    {
      "constant": true,
      "inputs": [],
      "name": "LOCK_END_TIME",
      "outputs": [
        {
          "name": "",
          "type": "uint256"
        }
      ],
      "payable": false,
      "stateMutability": "view",
      "type": "function",
      "signature": "0x39621466"
    },
    {
      "constant": true,
      "inputs": [],
      "name": "LOCK_DROP_PERIOD",
      "outputs": [
        {
          "name": "",
          "type": "uint256"
        }
      ],
      "payable": false,
      "stateMutability": "view",
      "type": "function",
      "signature": "0x8cf0cb55"
    },
    {
      "constant": true,
      "inputs": [],
      "name": "LOCK_LENGTH_TERM",
      "outputs": [
        {
          "name": "",
          "type": "uint256"
        }
      ],
      "payable": false,
      "stateMutability": "view",
      "type": "function",
      "signature": "0xa6323668"
    },
    {
      "inputs": [
        {
          "name": "startTime",
          "type": "uint256"
        }
      ],
      "payable": false,
      "stateMutability": "nonpayable",
      "type": "constructor",
      "signature": "constructor"
    },
    {
      "anonymous": false,
      "inputs": [
        {
          "indexed": true,
          "name": "owner",
          "type": "address"
        },
        {
          "indexed": false,
          "name": "eth",
          "type": "uint256"
        },
        {
          "indexed": false,
          "name": "lockAddr",
          "type": "address"
        },
        {
          "indexed": false,
          "name": "supernovaAddr",
          "type": "bytes"
        },
        {
          "indexed": false,
          "name": "time",
          "type": "uint256"
        }
      ],
      "name": "Locked",
      "type": "event",
      "signature": "0xaa13f399a5eae3896672fe51db1bbb766682525000b48e261633891a5819853e"
    },
    {
      "constant": false,
      "inputs": [
        {
          "name": "supernovaAddr",
          "type": "bytes"
        }
      ],
      "name": "lock",
      "outputs": [],
      "payable": true,
      "stateMutability": "payable",
      "type": "function",
      "signature": "0x81548319"
    }
  ],
  "bytecode": "0x608060405234801561001057600080fd5b506040516020806105588339810180604052602081101561003057600080fd5b81019080805190602001909291905050508060008190555062eff1008101600181905550506104f4806100646000396000f3fe60806040526004361061006d576000357c0100000000000000000000000000000000000000000000000000000000900463ffffffff16806315f2e2f714610072578063396214661461009d57806381548319146100c85780638cf0cb5514610141578063a63236681461016c575b600080fd5b34801561007e57600080fd5b50610087610197565b6040518082815260200191505060405180910390f35b3480156100a957600080fd5b506100b261019d565b6040518082815260200191505060405180910390f35b61013f600480360360208110156100de57600080fd5b81019080803590602001906401000000008111156100fb57600080fd5b82018360208201111561010d57600080fd5b8035906020019184600183028401116401000000008311171561012f57600080fd5b90919293919293905050506101a3565b005b34801561014d57600080fd5b506101566103ea565b6040518082815260200191505060405180910390f35b34801561017857600080fd5b506101816103f1565b6040518082815260200191505060405180910390f35b60005481565b60015481565b600054421015151561021d576040517f08c379a00000000000000000000000000000000000000000000000000000000081526004018080602001828103825260188152602001807f4c6f636b64726f7020686173206e6f742073746172746564000000000000000081525060200191505060405180910390fd5b6001544211151515610297576040517f08c379a00000000000000000000000000000000000000000000000000000000081526004018080602001828103825260128152602001807f4c6f636b64726f702068617320656e646564000000000000000000000000000081525060200191505060405180910390fd5b60003433607842016102a76103f6565b808373ffffffffffffffffffffffffffffffffffffffff1673ffffffffffffffffffffffffffffffffffffffff168152602001828152602001925050506040518091039082f0801580156102ff573d6000803e3d6000fd5b5090509050348173ffffffffffffffffffffffffffffffffffffffff16311015151561032757fe5b3373ffffffffffffffffffffffffffffffffffffffff167faa13f399a5eae3896672fe51db1bbb766682525000b48e261633891a5819853e3483868642604051808681526020018573ffffffffffffffffffffffffffffffffffffffff1673ffffffffffffffffffffffffffffffffffffffff168152602001806020018381526020018281038252858582818152602001925080828437600081840152601f19601f820116905080830192505050965050505050505060405180910390a2505050565b62eff10081565b607881565b60405160c3806104068339019056fe60806040526040516040806100c383398101806040526040811015602257600080fd5b81019080805190602001909291908051906020019092919050505081600055806001555050606e806100556000396000f3fe6080604052600154421160008114601b5760018114602057603f565b600080fd5b60008060008030316000545af160008114603857603d565b600080fd5b505b5000fea165627a7a723058207b8e0b529326ef7178c117124600dc667b5e7cae93d52f1ef7ef6699280f30620029a165627a7a7230582091e1dbe824b810936f0e63db08724e80b446b8ccedfa9811ea0127047ac2f94f0029",
  "source": "pragma solidity >=0.4.21 <0.6.0;\n\ncontract Lock {\n    // address owner; slot #0\n    // address unlockTime; slot #1\n    constructor (address owner, uint256 unlockTime) public payable {\n        assembly {\n            sstore(0x00, owner)\n            sstore(0x01, unlockTime)\n        }\n    }\n\n    /**\n     * @dev        Withdraw function once timestamp has passed unlock time\n     */\n    function () external payable { // payable so solidity doesn't add unnecessary logic\n        assembly {\n            switch gt(timestamp, sload(0x01))\n            case 0 { revert(0, 0) }\n            case 1 {\n                switch call(gas, sload(0x00), balance(address), 0, 0, 0, 0)\n                case 0 { revert(0, 0) }\n            }\n        }\n    }\n}\n\ncontract Lockdrop {\n    // Time constants\n    // uint256 constant public LOCK_LENGTH_TERM = 1 days * 182;  // Mainnet params\n    uint256 constant public LOCK_LENGTH_TERM = 1 * 2 minutes;  // Ropsten params\n    uint256 constant public LOCK_DROP_PERIOD = 1 days * 182;\n    uint256 public LOCK_START_TIME;\n    uint256 public LOCK_END_TIME;\n    // ETH locking events\n    event Locked(address indexed owner, uint256 eth, Lock lockAddr, bytes supernovaAddr, uint time);\n\n    constructor(uint startTime) public {\n        LOCK_START_TIME = startTime;\n        LOCK_END_TIME = startTime + LOCK_DROP_PERIOD;\n    }\n\n    /**\n     * @dev        Locks up the value sent to contract in a new Lock\n     * @param      supernovaAddr   The bytes representation of the target cosmos key\n     */\n    function lock(bytes calldata supernovaAddr)\n        external\n        payable\n        didStart\n        didNotEnd\n    {\n        // Create ETH lock contract\n        Lock lockAddr = (new Lock).value(msg.value)(msg.sender, now + LOCK_LENGTH_TERM);\n        // ensure lock contract has at least all the ETH, or fail\n        assert(address(lockAddr).balance >= msg.value);\n        emit Locked(msg.sender, msg.value, lockAddr, supernovaAddr, now);\n    }\n\n    /**\n     * @dev        Ensures the lockdrop has started\n     */\n    modifier didStart() {\n        require(now >= LOCK_START_TIME, 'Lockdrop has not started');\n        _;\n    }\n\n    /**\n     * @dev        Ensures the lockdrop has not ended\n     */\n    modifier didNotEnd() {\n        require(now <= LOCK_END_TIME, 'Lockdrop has ended');\n        _;\n    }\n}",
  "sourcePath": "/Users/drewstone/code/commonwealth/supernova-lockdrop/eth/contracts/Lockdrop.sol",
  "compiler": {
    "name": "solc",
    "version": "0.5.0+commit.1d4f565a.Emscripten.clang"
  },
  "schemaVersion": "3.0.1",
  "updatedAt": "2019-11-07T20:18:45.209Z",
  "devdoc": {
    "methods": {
      "lock(bytes)": {
        "details": "Locks up the value sent to contract in a new Lock",
        "params": {
          "supernovaAddr": "The bytes representation of the target cosmos key"
        }
      }
    }
  },
  "userdoc": {
    "methods": {}
  }
}