{
  "contractName": "Lockdrop",
  "abi": [
    {
      "constant": true,
      "inputs": [],
      "name": "LOCK_START_TIME",
      "outputs": [
        {
          "name": "",
          "type": "uint256"
        }
      ],
      "payable": false,
      "stateMutability": "view",
      "type": "function"
    },
    {
      "constant": true,
      "inputs": [],
      "name": "LOCK_END_TIME",
      "outputs": [
        {
          "name": "",
          "type": "uint256"
        }
      ],
      "payable": false,
      "stateMutability": "view",
      "type": "function"
    },
    {
      "constant": true,
      "inputs": [],
      "name": "LOCK_DROP_PERIOD",
      "outputs": [
        {
          "name": "",
          "type": "uint256"
        }
      ],
      "payable": false,
      "stateMutability": "view",
      "type": "function"
    },
    {
      "inputs": [
        {
          "name": "startTime",
          "type": "uint256"
        }
      ],
      "payable": false,
      "stateMutability": "nonpayable",
      "type": "constructor"
    },
    {
      "anonymous": false,
      "inputs": [
        {
          "indexed": true,
          "name": "owner",
          "type": "address"
        },
        {
          "indexed": false,
          "name": "eth",
          "type": "uint256"
        },
        {
          "indexed": false,
          "name": "lockAddr",
          "type": "address"
        },
        {
          "indexed": false,
          "name": "term",
          "type": "uint8"
        },
        {
          "indexed": false,
          "name": "cosmosAddr",
          "type": "bytes"
        },
        {
          "indexed": false,
          "name": "time",
          "type": "uint256"
        }
      ],
      "name": "Locked",
      "type": "event"
    },
    {
      "constant": false,
      "inputs": [
        {
          "name": "term",
          "type": "uint8"
        },
        {
          "name": "cosmosAddr",
          "type": "bytes"
        }
      ],
      "name": "lock",
      "outputs": [],
      "payable": true,
      "stateMutability": "payable",
      "type": "function"
    }
  ],
  "bytecode": "0x608060405234801561001057600080fd5b506040516020806105038339810180604052602081101561003057600080fd5b81019080805190602001909291905050508060008190555062794a0081016001819055505061049f806100646000396000f3fe608060405260043610610062576000357c0100000000000000000000000000000000000000000000000000000000900463ffffffff16806315f2e2f71461006757806339621466146100925780638cf0cb55146100bd578063ca14d176146100e8575b600080fd5b34801561007357600080fd5b5061007c61016e565b6040518082815260200191505060405180910390f35b34801561009e57600080fd5b506100a7610174565b6040518082815260200191505060405180910390f35b3480156100c957600080fd5b506100d261017a565b6040518082815260200191505060405180910390f35b61016c600480360360408110156100fe57600080fd5b81019080803560ff1690602001909291908035906020019064010000000081111561012857600080fd5b82018360208201111561013a57600080fd5b8035906020019184600183028401116401000000008311171561015c57600080fd5b9091929391929390505050610181565b005b60005481565b60015481565b62794a0081565b600054421015151561019257600080fd5b60015442111515156101a357600080fd5b600034336101b086610312565b6101b86103a1565b808373ffffffffffffffffffffffffffffffffffffffff1673ffffffffffffffffffffffffffffffffffffffff168152602001828152602001925050506040518091039082f080158015610210573d6000803e3d6000fd5b5090509050348173ffffffffffffffffffffffffffffffffffffffff16311015151561023857fe5b3373ffffffffffffffffffffffffffffffffffffffff167f61a24ebcfb4d98732448487545dddf260e51ceefd0c2e83b46c5ba7264a7a5a6348387878742604051808781526020018673ffffffffffffffffffffffffffffffffffffffff1673ffffffffffffffffffffffffffffffffffffffff1681526020018560028111156102be57fe5b60ff168152602001806020018381526020018281038252858582818152602001925080828437600081840152601f19601f82011690508083019250505097505050505050505060405180910390a250505050565b600080600281111561032057fe5b82600281111561032c57fe5b141561033f5762794a004201905061039c565b6001600281111561034c57fe5b82600281111561035857fe5b141561036b5762f142804201905061039c565b60028081111561037757fe5b82600281111561038357fe5b1415610397576301e133804201905061039c565b600080fd5b919050565b60405160c3806103b18339019056fe60806040526040516040806100c383398101806040526040811015602257600080fd5b81019080805190602001909291908051906020019092919050505081600055806001555050606e806100556000396000f3fe6080604052600154421160008114601b5760018114602057603f565b600080fd5b60008060008030316000545af160008114603857603d565b600080fd5b505b5000fea165627a7a72305820302f2b70450e50161a6b7469e5abfb9df3bff3edef08bd7f62653625bbc7aa3f0029a165627a7a7230582072ef09985a19f08720effddf52416820818ea7fb4e9812fc546df7540f64280f0029",
  "source": "pragma solidity >=0.4.21 <0.6.0;\n\ncontract Lock {\n    // address owner; slot #0\n    // address unlockTime; slot #1\n    constructor (address owner, uint256 unlockTime) public payable {\n        assembly {\n            sstore(0x00, owner)\n            sstore(0x01, unlockTime)\n        }\n    }\n    \n    /**\n     * @dev        Withdraw function once timestamp has passed unlock time\n     */\n    function () external payable { // payable so solidity doesn't add unnecessary logic\n        assembly {\n            switch gt(timestamp, sload(0x01))\n            case 0 { revert(0, 0) }\n            case 1 {\n                switch call(gas, sload(0x00), balance(address), 0, 0, 0, 0)\n                case 0 { revert(0, 0) }\n            }\n        }\n    }\n}\n\ncontract Lockdrop {\n    enum Term {\n        ThreeMo,\n        SixMo,\n        TwelveMo\n    }\n    // Time constants\n    uint256 constant public LOCK_DROP_PERIOD = 1 days * 92; // 3 months\n    uint256 public LOCK_START_TIME;\n    uint256 public LOCK_END_TIME;\n    // ETH locking events\n    event Locked(address indexed owner, uint256 eth, Lock lockAddr, Term term, bytes cosmosAddr, uint time);\n    \n    constructor(uint startTime) public {\n        LOCK_START_TIME = startTime;\n        LOCK_END_TIME = startTime + LOCK_DROP_PERIOD;\n    }\n\n    /**\n     * @dev        Locks up the value sent to contract in a new Lock\n     * @param      term         The length of the lock up\n     * @param      cosmosAddr   The bytes representation of the target cosmos key\n     */\n    function lock(Term term, bytes calldata cosmosAddr)\n        external\n        payable\n        didStart\n        didNotEnd\n    {\n        // Create ETH lock contract\n        Lock lockAddr = (new Lock).value(msg.value)(msg.sender, unlockTimeForTerm(term));\n        // ensure lock contract has at least all the ETH, or fail\n        assert(address(lockAddr).balance >= msg.value);\n        emit Locked(msg.sender, msg.value, lockAddr, term, cosmosAddr, now);\n    }\n\n    function unlockTimeForTerm(Term term) internal view returns (uint256) {\n        if (term == Term.ThreeMo) return now + 92 days;\n        if (term == Term.SixMo) return now + 183 days;\n        if (term == Term.TwelveMo) return now + 365 days;\n        \n        revert();\n    }\n\n    /**\n     * @dev        Ensures the lockdrop has started\n     */\n    modifier didStart() {\n        require(now >= LOCK_START_TIME);\n        _;\n    }\n\n    /**\n     * @dev        Ensures the lockdrop has not ended\n     */\n    modifier didNotEnd() {\n        require(now <= LOCK_END_TIME);\n        _;\n    }\n}",
  "sourcePath": "/Users/drewstone/code/commonwealth/supernova-lockdrop/eth/contracts/Lockdrop.sol",
  "compiler": {
    "name": "solc",
    "version": "0.5.0+commit.1d4f565a.Emscripten.clang"
  },
  "schemaVersion": "3.0.1",
  "updatedAt": "2019-09-23T20:13:59.580Z",
  "devdoc": {
    "methods": {
      "lock(uint8,bytes)": {
        "details": "Locks up the value sent to contract in a new Lock",
        "params": {
          "cosmosAddr": "The bytes representation of the target cosmos key",
          "term": "The length of the lock up"
        }
      }
    }
  },
  "userdoc": {
    "methods": {}
  }
}